:020000040800F2
:100000004807002029020008E3170008F31600083B
:10001000E11700081F040008611900080000000033
:10002000000000000000000000000000E7170008CA
:100030003904000800000000E5170008E91700086F
:10004000430200084302000843020008430200087C
:10005000430200084302000843020008430200086C
:10006000430200084302000843020008430200085C
:10007000430200084302000843020008430200084C
:100080004302000843020008430200082D04000850
:10009000210400084302000843020008430200084C
:1000A000430200084302000843020008430200081C
:1000B000430200084302000843020008430200080C
:1000C00043020008430200084302000843020008FC
:1000D00043020008430200084302000843020008EC
:1000E00043020008430200084302000843020008DC
:1000F00043020008430200084302000843020008CC
:1001000043020008430200084302000843020008BB
:1001100043020008430200088D180008430200084B
:10012000430200084302000843020008430200089B
:10013000430200084302000843020008430200088B
:10014000430200084302000843020008430200087B
:10015000430200084302000843020008430200086B
:10016000430200084302000843020008430200085B
:100170004302000843020008430200080000000098
:10018000430200084302000800F002F800F03CF8C7
:100190000AA090E8000C82448344AAF10107DA45E2
:1001A00001D100F031F8AFF2090EBAE80F0013F0F8
:1001B000010F18BFFB1A43F001031847B8190000DC
:1001C000D8190000103A24BF78C878C1FAD852076D
:1001D00024BF30C830C144BF04680C6070470000C1
:1001E0000023002400250026103A28BF78C1FBD840
:1001F000520728BF30C148BF0B6070471FB501F0E0
:10020000A7FC1FBD10B510BD00F0CFF81146FFF7D9
:10021000F5FF01F07BFC00F0EDF803B4FFF7F2FF0F
:1002200003BC00F0F5F80000094880470948004782
:10023000FEE7FEE7FEE7FEE7FEE7FEE7FEE7FEE796
:10024000FEE7FEE704480549054A064B70470000F3
:100250007D18000889010008480100204807002097
:10026000480300204803002053EA020C00F0698094
:100270002DE9F04B4FF00006002B1FBFB3FA83F5BA
:1002800003FA05F424FA05F65E4012BF1643B2FAEB
:1002900082F502FA05F4C5F120051EBF22FA05FC1D
:1002A00044EA0C04203556EA044C4FEA144418BFC3
:1002B000641C4FF000084FF00009904271EB030CF2
:1002C00039D3002919BFB1FA81F701FA07F6B0FA5C
:1002D00080F700FA07F6C7F120071EBF20FA07FCD7
:1002E00046EA0C062037B6FBF4FCA7EB0507103FE7
:1002F00007F01F0BCBF120060CFA0BFB2CFA06F6CD
:1003000044BFB3460026202FA4BF5E464FF0000B2B
:100310005BEA060C08BF4FF0010B19EB0B09ABFBB6
:10032000027C48EB0608C01B06FB02CC0BFB03CC8F
:1003300071EB0C01C1E70B46024641464846BDE859
:10034000F08B13B54FF000004FF00001AFF30080C9
:10035000BDE81C4070474FF0000200B513469446BC
:100360009646203922BFA0E80C50A0E80C50B1F10D
:100370002001BFF4F7AF090728BFA0E80C5048BF21
:100380000CC05DF804EB890028BF40F8042B08BFBF
:10039000704748BF20F8022B11F0804F18BF00F8BB
:1003A000012B7047704770477047754600F02CF876
:1003B000AE4605006946534620F00700854618B052
:1003C00020B5FFF73FFFBDE820404FF000064FF09B
:1003D00000074FF000084FF0000B21F00701AC467A
:1003E000ACE8C009ACE8C009ACE8C009ACE8C00999
:1003F0008D46704710B50446AFF300802046BDE837
:100400001040FFF70ABF000000487047E4000020DA
:1004100001491820ABBEFEE7260002007047FEE748
:10042000014800F094B9000014000020014800F0D9
:100430008EB9000014000020704772B6FEE790F8F5
:100440002020012A07D0022A05D0416A41F48021E8
:10045000416201207047006842690A4342610020FE
:100460007047F0B590F820500468A468012D05D0BD
:10047000022D03D0416A41F4802153E014F0406F13
:1004800001D1E5004BD5C4F30164022C03D9416AC4
:1004900041F4000146E00125A5401D608B684FF442
:1004A000C0759BB1CE6833434E6843EAC603066805
:1004B00005EB0417F3514FF4C273076803EB041301
:1004C0000E69FE50097D012905D009E00E88CB6830
:1004D00043EA4653EBE70168CE5846F48076CE50A7
:1004E0001179D2F805304FF4C67641EA032301684A
:1004F00006EB04168B511178D2F801204FF4C47327
:1005000041EA0221026803EB0413D150006805EBB5
:100510000411425842F0010242500020F0BD416AED
:1005200041F4001141620120F0BD000010B590F8C7
:100530002020012A07D0022A05D0416A41F48021F7
:100540004162012010BD3B48D0F8002242F0010278
:10055000C0F80022D0F8002222F47C52C0F8002219
:10056000D0F800224B6A42EA0322C0F800220A7D3A
:1005700002F01F0301229A40D0F81C329343C0F8C6
:100580001C32CB69B3B9D0F80C329343C0F80C32AB
:100590008C894B6864F31F434C6900EBC404C4F8B6
:1005A00040320C890B6864F31F434C6900EBC404B0
:1005B000C4F84432CB69012B16D1D0F80C32134366
:1005C000C0F80C320C884B6864F31F434C6900EB95
:1005D000C404C4F840320C89CB6864F31F434C69EF
:1005E00000EBC404C4F844328B69002BD0F8043209
:1005F0000ED01343C0F804320B69002BD0F814322C
:1006000008D01343C0F81432096A012904D008E065
:100610009343EFE79343F5E7D0F81C121143C0F87A
:100620001C12D0F8001221F00101C0F800120020C5
:1006300010BD000000640040704730B590F82040C5
:10064000012C05D0022C03D0416A41F480215DE0E9
:100650000468002955D02469A40754D04FF4D874F5
:10066000056804EB01142D5915F004059560056823
:100670002D594ED0ED08556005682C5904F0020440
:10068000D4604FF4DA74056804EB01142D5905F0B9
:100690000F05156105682D59C5F307259561056896
:1006A0002C59240C54614FF4DC72046802EB0112E3
:1006B000A4581C700468A458240A5C700468A458E8
:1006C000240C9C700468A258120EDA704FF4DE728B
:1006D000046802EB0112A4581C710468A458240A8F
:1006E0005C710468A458240C9C710468A258120E12
:1006F000DA71006881B1016941F0200101610020D7
:1007000030BDE468A8E7416A41F40011416201206C
:1007100030BD6D0D1560AFE7C16841F02001C160CB
:10072000EDE70246002092F82010012901D00229AD
:100730000CD111688A68520100D501208A68120123
:1007400000D5401C8968C90000D5401C70472DE9C0
:10075000F05F0546006800244669D0F80490876879
:10076000D0F80CB0D0F810A0D0F81880F10748D01D
:10077000F90714D001218160B80703D5284600F09D
:100780000EFA0CE0780702D54FF4006407E0380752
:1007900002D54FF4805402E0284600F0FFF9F80536
:1007A00016D529684FF480708860B80503D52846AF
:1007B00000F0F7F90CE0780502D544F4005407E0A6
:1007C000380502D544F4804402E0284600F0E8F9F8
:1007D000F80316D529684FF480308860B80303D534
:1007E000284600F0E0F90CE0780302D544F4004418
:1007F00007E0380302D544F4803402E0284600F0D4
:10080000D1F9300707D55FEACB6004D529681020FD
:1008100044F40074C86070074FF0080707D55FEA1A
:100820000B7004D52868C760284600F061F9B0074E
:1008300006D52868C068800702D0284600F05AF91B
:10084000700607D55FEACA6004D52968102044F411
:1008500080640861B00607D55FEA0A7004D528688D
:100860000761284600F06CF9F00606D52868006993
:10087000800702D0284600F064F9B00308D55FEA8B
:10088000C96005D5296810204860284600F05AF94B
:10089000F00307D55FEA097004D528684760284649
:1008A00000F082F9300446D55FEA497040D5F00582
:1008B00004D55FEAC87001D044F00104B00504D546
:1008C0005FEA887001D544F00204700504D55FEA40
:1008D000487001D544F00404300529D518F0700F94
:1008E00026D008F07000402815D006DC102809D06A
:1008F00020280AD0302816D10AE050280ED06028CF
:1009000011D10EE044F008040DE044F010040AE0B8
:1009100044F0200407E044F0400404E044F0800484
:1009200001E044F480742868816921F070018161DC
:10093000296804204860002C05D0686A204368625A
:100940002846FFF779FEBDE8F09F70B5040003D09C
:1009500094F8200010B104E0012070BD204600F0A2
:1009600081F82068016841F00101016000F01EFA81
:100970000546052604E000F019FA401B0A2811D8A4
:1009800020684068C007F6D02068016821F00201A5
:10099000016000F00BFA05460BE000F007FA401B7F
:1009A0000A2806D9606A40F40030606284F820604A
:1009B000D2E7206840688007EFD4207E01282068B5
:1009C00001683DD021F080010160607E012820682F
:1009D000016838D021F040010160A07E0128206824
:1009E000016833D021F020010160E07E01282068F9
:1009F00001682ED041F010010160207F012820689D
:100A0000016829D021F008010160607F0128206879
:100A1000016824D021F004010160D4E902010843F7
:100A2000D4E90412114308436168491E0843216850
:100A3000C86100206062012084F82000002070BDA1
:100A400041F08001C0E741F04001C5E741F02001DD
:100A5000CAE721F01001CFE741F00801D4E741F0E7
:100A60000401D9E710B586B0044614216846FFF7A3
:100A700072FC1C492068884231D11B480021026861
:100A800042F000720260006800F0007005901648A5
:100A90001038026842F001020260006800F00100B4
:100AA00005904FF4C05000900220CDE901010320D1
:100AB00003900920049069460C4800F089F8002250
:100AC0000121132000F00CFA132000F0FBF90022A2
:100AD0000121142000F004FA142000F0F3F906B00C
:100AE00010BD000000640040403802400000024099
:100AF0007047000000B589B007AB6A460021FFF7D8
:100B00009CFD0098A0F50070013805D0012803D0A5
:100B1000022801D003280CD100980749401EC0B21A
:100B20000870064900EB800001EB400007A900F0C7
:100B3000DFFF09B000BD0000100000209C00002075
:100B400070477047704770B5044690F82000012840
:100B500004D0606A40F40020606217E0022084F84C
:100B600020002068016821F00101016000F01EF9F9
:100B700005460DE000F01AF9401B0A2808D9606A02
:100B800040F400306062052084F82000012070BD30
:100B900020684068C007EDD1606270BD7047704743
:100BA00070477047704770477047000070B5044643
:100BB00000F0FCF80546601C02D0044800780444AC
:100BC00000F0F4F8401BA042FAD370BD00000020F2
:100BD0002DE9F84FDFF89C910022A9F1040B0327BF
:100BE0004FF00F0C09F1040AABF1040E01250B685C
:100BF00095402B40AB426ED10C7904F00304012CDC
:100C000001D0022C15D18668540007FA04F826EAB0
:100C10000806D1F80C8008FA04F848EA0608C0F87B
:100C200008804468AC430D79C5F300159540254311
:100C300045600C79E443A40708D0C568540007FA5E
:100C400004F6B5438E68A6402E43C6600C7904F0C6
:100C50000304022C11D1D40800EB8406356A540732
:100C6000E40E0CFA04F825EA0805D1F8108008FA19
:100C700004F848EA0508C6F820800568540007FA19
:100C800004F6B5430E7906F00306A6402E4306602F
:100C90004C6814F4403F66D0374C256845F48045D5
:100CA0002560246822F0030504F480440094334C4A
:100CB00005EB0408D8F808589407260F0CFA06F438
:100CC000A5432F4CA04201D1002424E02D4CA0428A
:100CD00002D101241FE046E02B4CA04201D10224A6
:100CE00019E02A4CA04201D1032414E0284CA04270
:100CF00001D104240FE0274CA04201D105240AE0D1
:100D0000254CA04201D1062405E0244CA04201D18B
:100D1000072400E00824B4402C43C8F80848D9F858
:100D200000404D464E689C43F60200D51C432C60A3
:100D3000DAF8004055464E689C43B60200D51C4385
:100D40002C60DBF800405D464E689C43B60300D53E
:100D50001C432C60DEF8004075464E689C43F60349
:100D600000D51C432C60521C102AFFF43FAFBDE895
:100D7000F88F0000083C0140443802400030014038
:100D8000000002400004024000080240000C024043
:100D9000001002400014024000180240001C0240F3
:100DA0000AB1816170470904FBE7000001488068CF
:100DB000704700000000002002488168027811445A
:100DC00081607047000000200B4810B5016841F4B5
:100DD00000710160016841F480610160016841F4C3
:100DE00080710160032000F09BF80F2000F006F8EE
:100DF00000F050F8002010BD003C024030B5054620
:100E00001F4887B00024016841F0100101600068AC
:100E100006A900F010000590684600F02DF903982F
:100E2000A8B100F049F940001649174AB0FBF1F1AA
:100E30001648491E026040F2E732C0E90324C0E9C7
:100E40000114846100F026FB040003D015E000F0DB
:100E500033F9E9E70D4800F04BFB04000DD13620D3
:100E600000F030F8102D07D200222946362000F07D
:100E700037F80748056000E0012407B0204630BD80
:100E80004038024040420F00001000403C0000206B
:100E9000040000200A4808B5016841F4804101605F
:100EA000006800F4804000900548001F016841F090
:100EB00080510160006800F08050009008BD000083
:100EC00044380240002809DB00F01F020121914054
:100ED0004009800000F1E020C0F8001170470000D8
:100EE000F0B40E4B1B68C3F30223C3F10704042CB8
:100EF00000D904241D1D072D01D2002300E0DB1EB4
:100F0000012606FA04F56D1E0D409D409E40761E9A
:100F1000164045EA0601F0BC00F05ABD0CED00E0B9
:100F2000064A00F0070110684FF6FF03184040EA38
:100F30000120034908431060704700000CED00E0F9
:100F40000000FA052DE9F0470D46040065D0DFF8F2
:100F50001491D9F80000EFB200F00700A84207D2C0
:100F600089F80070D9F8000000F00700A84254D1B9
:100F700020683D4E810712D5400703D5306840F404
:100F8000E05030602078000703D5306840F46040BE
:100F900030603068A16820F0F000084330602078AD
:100FA000C0072DD0304960680839012812D00228C6
:100FB00013D0032811D00968890700292DDA316878
:100FC00021F0030101433160FFF7F0FE804641F25A
:100FD000883A0EE009688903EFE709688901ECE7C0
:100FE000FFF7E4FEA0EB0801514502D90320BDE85C
:100FF000F0873068616800F00C00B0EB810FEFD132
:10100000D9F80010484601F00701A94207D9077036
:10101000006800F00700A84201D00120E7E720782F
:10102000400705D53068E16820F4E050084330609F
:101030002078000706D53068216920F4604040EA36
:10104000C100306000F048F83168084AC1F303116C
:10105000515CC8400649086006480068FFF7CEFEAC
:101060000020C4E7003C0240083802405A1B000838
:101070000C000020040000200F2202600C4A1368BC
:1010800003F003034360136803F0F0038360136805
:1010900003F4E053C36012684FF4E05303EAD20252
:1010A00002610448006800F0070008607047000013
:1010B00008380240003C02400448054900680968BD
:1010C000044AC1F38221515CC84070470C000020E3
:1010D000083802406A1B0008154810B5006810F077
:1010E0000C01144813D0431004290FD008290ED145
:1010F0000F4C241F216801F03F022168490207D5E7
:101100002068C0F38810A0FB030106E0184610BD5C
:101110002168C1F38811A1FB00010023FFF7A4F8A7
:101120002168C1F30141491C4900B0FBF1F010BD39
:10113000083802400024F4002DE9F84F040075D06F
:101140002078DFF838A3C007AAF1040548D00AF1D7
:1011500004000168C1F38101012908D00068C0F3CF
:10116000810002280AD1DAF80000400206D528687A
:10117000800335D560680028E1D031E06068B0F5C3
:10118000803F10D0B0F5A02F286810D020F4803018
:101190002860286820F4802028606068A0B1FFF7EC
:1011A00005FE06460CE0286840F48030F4E740F481
:1011B00080202860F7E7FFF7F9FD801B642871D8CD
:1011C00028688003F7D50BE0FFF7F0FD064604E042
:1011D000FFF7ECFD801B6428F1D828688003F7D462
:1011E0002078DFF89C9280074FF0000B3DD5A34894
:1011F000001D016811F00C0F08D00068C0F38100D9
:1012000002280AD1DAF80000400206D428688007D4
:1012100015D5E068012809D111E0E068B8B10120D6
:10122000C9F80000FFF7C2FD064605E022E1FFF71E
:10123000BDFD801B0228C2D828688007F7D5286822
:10124000216920F0F80040EAC10028600DE0C9F8EB
:1012500000B0FFF7ABFD064604E0FFF7A7FD801BDB
:1012600002281FD828688007F7D42078000722D5E5
:10127000824F84486169703771B101210160FFF7C5
:1012800095FD064604E0FFF791FD801B022809D872
:1012900038688007F7D50EE0C0F800B0FFF786FD8C
:1012A000064605E082E0FFF781FD801B02287DD81D
:1012B00038688007F7D42078400765D56F484FF02D
:1012C00000083C300068C0000BD46C483C3001681A
:1012D00041F08051016000684FF0010800F080503B
:1012E0000090694F3868C0050FD4386840F48070AA
:1012F0003860FFF75BFD064604E0FFF757FD801BF3
:10130000022853D83868C005F7D55C4FA0686C3701
:1013100001280FD00528386810D020F0010038606F
:10132000386820F004003860A068B0B1FFF73EFDD7
:1013300006460EE0386840F00100F4E740F0040093
:101340003860F7E7FFF732FD811B41F288308142B8
:1013500063D838688007F5D50DE0FFF727FD06460E
:1013600006E0FFF723FD811B41F28830814254D80B
:1013700038688007F5D4B8F1000F05D03F483C30FD
:10138000016821F080510160A069B8B33B49091D93
:101390000968C1F38101022946D00228584606D0C7
:1013A000C9F86000FFF702FD044639E035E04F461A
:1013B000C9F86000FFF7FAFC064604E0FFF7F6FC08
:1013C000801B022829D828688001F7D4D4E90701B6
:1013D0000843A16A2D4A490802EB0141626A41EAC9
:1013E0008211084394F82C1040EA0161CAF80010F9
:1013F00001203866FFF7DAFC044605E03CE0FFF721
:10140000D5FC001B022808D828688001F7D533E0F6
:10141000FFF7CCFC001B022802D90320BDE8F88F9F
:1014200028688001F4D427E00128F7D0DAF800001A
:10143000E26900F4800191421CD1226A00F03F0170
:10144000914217D147F6C071626A0140B1EB821F29
:1014500010D1A26A4FF0FF3300F4403103EB520287
:10146000B1EB024F06D194F82C1000F07060B0EB95
:10147000016F01D00120D1E70020CFE704380240FE
:1014800000004742800E4742007000400000FFFF0E
:101490007047704710B5040003D094F83D0010B1B8
:1014A00007E0012010BD002084F83C00204600F039
:1014B0001EF8022084F83D00211D206800F0ECF9A0
:1014C000012084F8460084F83E0084F83F0084F848
:1014D000400084F8410084F8420084F8430084F816
:1014E000440084F8450084F83D00002010BD70479A
:1014F00090F83D10012901D001207047022180F8A9
:101500003D100168CA6842F00102CA6000681149D2
:10151000884214D0B0F1804F11D00F4988420ED0CC
:101520000E4988420BD00E49884208D00D498842A6
:1015300005D00D49884202D00C49884204D1816807
:1015400001F00701062903D0016841F001010160A3
:1015500000207047000001400004004000080040E7
:10156000000C004000040140004001400018004011
:10157000704770B50446006801694FF00005C94323
:10158000890715D4C168C943890711D4E91E0161CF
:1015900001202077206880698007204602D0FFF76D
:1015A000E7FF04E000F098F8204600F096F8257771
:1015B00020680169C943490717D4C168C94349076D
:1015C00013D46FF004010161022020772068806944
:1015D00010F4407F204602D0FFF7CAFF04E000F07D
:1015E0007BF8204600F079F8257720680169C94327
:1015F000090716D4C168C943090712D46FF008015E
:101600000161042020772068C0698007204602D04D
:10161000FFF7AEFF04E000F05FF8204600F05DF851
:10162000257720680169C943C90617D4C168C94331
:10163000C90613D46FF010010161082020772068DB
:10164000C06910F4407F204602D0FFF791FF04E00C
:1016500000F042F8204600F040F825772068016944
:10166000C943C90708D1C168C943C90704D1891E44
:101670000161204600F032F820680169C94309067B
:1016800009D4C168C943090605D46FF0800101611E
:101690002046FFF7FDFE20680169C943490609D4C9
:1016A000C168C943490605D46FF040010161204675
:1016B00000F01EF820680169C94389060BD4C1688F
:1016C000C943890607D46FF0200101612046BDE8B7
:1016D0007040FFF7DEBE70BD704770470068034979
:1016E000884201D1FFF768BB70470000001000403E
:1016F0007047FEE7104810B50E49016003214160B4
:1017000000214FF400228160C0E903124FF440121F
:101710004261017641768176C17601770121417778
:10172000FFF713F9002803D0BDE81040FEF785BE8F
:1017300010BD0000006400401400002070B586B0A9
:1017400014216846FEF707FE22480024016841F094
:1017500004010160016801F004010591016841F094
:1017600080010160016801F080010591016841F08C
:1017700010010160016801F010010591016841F05C
:1017800008010160016801F008010591016841F05C
:10179000010101600068104E00F001004FF4C065C7
:1017A0000590012229463046FFF7FAFA01200095FC
:1017B000CDE901040220039069463046FFF708FA9C
:1017C0003015CDE90004694604480294FFF700FA99
:1017D00006B070BD3038024000100240000C0240DC
:1017E000FEE7FEE7704770477047000030B593B0E2
:1017F00030216846FEF7AFFD14210CA8FEF7ABFDC3
:101800001C480025016841F080510160006800F02B
:10181000805011901848016841F4804101600068CF
:10182000022400F4804011900120009000040190F7
:101830008001CDE9064008AA0420542182E8130063
:101840000B906846FFF778FC08B172B6FEE70CA96A
:101850000F2081E831004FF48050CDE90F050221BF
:101860000CA8FFF76FFB002801D072B6FEE713B09B
:1018700030BD00004038024000700040024801685E
:1018800041F470010160704788ED00E00148FFF706
:1018900070BE00003C000020F0B50268254D264EC9
:1018A000264FDFF89CC0274B4FF0804EA84209D04E
:1018B000704507D0B04205D0B84203D0604501D092
:1018C000984203D122F070044A682243A8421BD0F8
:1018D000704519D0B04217D0B84215D0604513D02A
:1018E000984211D0184CA0420ED0184CA0420BD0F8
:1018F000174CA04208D0174CA04205D0164CA0426D
:1019000002D0164CA04203D122F44074CA6822438C
:101910004C6922F08002224302608A68C2620A682F
:101920008262A84201D0984201D109690163012174
:101930004161F0BD0000014000040040000800408B
:10194000000C004000040140004001400044014000
:101950000048014000180040001C004000200040EA
:10196000FEE7000010B58AB000240120CDE9064052
:1019700008900E200494009409900194029403941A
:10198000059469461048FEF7D1FD08B1FEF755FDF4
:101990000D48FFF7D8F808B1FEF74FFD01210A48BE
:1019A000FEF74DFD08B1FEF748FD02210648FEF79F
:1019B00046FD08B1FEF741FD04480421C0E90214C8
:1019C000082101610AB010BD14000020840000202D
:1019D0000907090E002804DB00F1E02080F800145C
:1019E000704700F00F0000F1E02080F8141D7047F0
:1019F00030B513680D0E5C1C1460C55413680D0CD3
:101A00005C1C1460C55413680D0A5C1C1460C5543A
:101A100013685C1C1460C15430BD0000DFED0B0A7C
:101A20001CB520EE200A044600200090BDEEC00A3E
:101A30006A4601A810EE101AFFF7DAFF009801A914
:101A4000C2B244F4807000F031F81CBD00007A444A
:101A5000DFED0B0A1CB520EE200A044600200090A2
:101A6000BDEEC00A6A4601A810EE101AFFF7C0FFCB
:101A7000009801A9C2B2204600F018F81CBD000071
:101A80000050C3471CB50446BDEEC00A00200090BC
:101A90006A4610EE101A01A8FFF7AAFF009801A9E4
:101AA000C2B244F4407000F001F81CBD38B50E4BD2
:101AB0000C46082119610021D9600421C3E9010104
:101AC00002E00120FFF772F80848FEF72AFE00281E
:101AD000F7D06B46224604490448FEF7C2FC0028B2
:101AE00001D0FEF7AAFC38BD8400002014000020BD
:101AF000028802810A8852BA02804A8852BA428019
:101B00008A8852BA82808979817170472DED028B63
:101B1000FFF75AF9FFF76AFEFFF710FEFFF7EAFD3D
:101B2000FFF720FFB0EE080A6520FFF777FF9FED73
:101B3000060A6520FFF78CFF9FED048A6520B0EE52
:101B4000480AFFF79FFFF9E7CDCC4C3E00409C458B
:101B50004FF04070E1EE100A7047000000000000F6
:101B6000000001020304060708090000000001024A
:101B700003040000941B0008000000201400000073
:101B8000C4010008A81B000814000020340700004E
:101B9000E00100080100000010000000000000004B
:081BA0000024F4000000000025
:040000050800018965
:00000001FF
